:020000040000FA
:100000000C9453000C947B000C947B000C947B00AC
:100010000C947B000C947B000C947B000C947B0074
:100020000C947B000C947B000C947B000C947B0064
:100030000C947B000C947B000C947B000C947B0054
:100040000C94A9010C947B000C9419020C94F301FC
:100050000C947B000C947B000C947B000C947B0034
:100060000C947B000C947B0000000000250028000D
:100070002B0000000000240027002A0004040404D0
:100080000404040402020202020203030303030342
:10009000010204081020408001020408102001021F
:1000A000040810204B0211241FBECFEFD8E0DEBFA2
:1000B000CDBF11E0A0E0B1E0E8E3F6E002C00590BA
:1000C0000D92AA32B107D9F721E0AAE2B1E001C04E
:1000D0001D92A03DB207E1F710E0C3E5D0E004C0F7
:1000E0002197FE010E941403C235D107C9F70E946F
:1000F00078020C941A030C94000090E0FC01E05785
:10010000FF4F249184589F4FFC018491882399F0DC
:1001100090E0880F991FFC01EE58FF4FA591B49114
:10012000FC01E859FF4F859194918FB7F894EC91B9
:10013000E22BEC938FBF0895AF92BF92CF92DF92E4
:10014000EF92FF920F931F93CF93DF936C017B018C
:100150008B01040F151FEB015E01AE18BF08C0171D
:10016000D10759F06991D601ED91FC910190F08190
:10017000E02DC6010995892B79F7C501DF91CF9153
:100180001F910F91FF90EF90DF90CF90BF90AF90B5
:100190000895FC01538D448D252F30E0842F90E08D
:1001A000821B930B541710F0CF9608950197089572
:1001B000FC01918D828D981761F0A28DAE0FBF2F3B
:1001C000B11D5D968C91928D9F5F9F73928F90E091
:1001D00008958FEF9FEF0895FC01918D828D981700
:1001E00031F0828DE80FF11D858D90E008958FEF3D
:1001F0009FEF0895FC01918D228D892F90E0805C06
:100200009F4F821B91098F739927089583E391E093
:100210000E94FA0021E0892B09F420E0822F089542
:1002200080E090E0892B29F00E94060181110C9456
:1002300000000895FC01A48DA80FB92FB11DA35A89
:10024000BF4F2C91848D90E001968F739927848FF6
:10025000A689B7892C93A089B1898C918370806419
:100260008C93938D848D981306C00288F389E02DBA
:1002700080818F7D80830895EF92FF920F931F936B
:10028000CF93DF93EC0181E0888F9B8D8C8D981349
:100290001AC0E889F989808185FF15C09FB7F89455
:1002A000EE89FF896083E889F989808183708064A1
:1002B00080839FBF81E090E0DF91CF911F910F91EC
:1002C000FF90EF900895F62E0B8D10E00F5F1F4FFB
:1002D0000F731127E02E8C8D8E110CC00FB607FC0A
:1002E000FACFE889F989808185FFF5CFCE010E9498
:1002F0001A01F1CFEB8DEC0FFD2FF11DE35AFF4FEB
:10030000F0829FB7F8940B8FEA89FB898081806225
:10031000CFCFCF93DF93EC01888D8823B9F0AA89E2
:10032000BB89E889F9898C9185FD03C0808186FDB0
:100330000DC00FB607FCF7CF8C9185FFF2CF8081FF
:1003400085FFEDCFCE010E941A01E9CFDF91CF9159
:1003500008951F920F920FB60F9211242F933F937F
:100360008F939F93AF93BF9380912F019091300112
:10037000A0913101B091320130912E0123E0230F81
:100380002D3758F50196A11DB11D20932E018093A4
:100390002F0190933001A0933101B09332018091ED
:1003A0002A0190912B01A0912C01B0912D01019671
:1003B000A11DB11D80932A0190932B01A0932C01C4
:1003C000B0932D01BF91AF919F918F913F912F914C
:1003D0000F900FBE0F901F90189526E8230F0296DE
:1003E000A11DB11DD2CF1F920F920FB60F921124F3
:1003F0002F933F934F935F936F937F938F939F932D
:10040000AF93BF93EF93FF9383E391E00E941A01B0
:10041000FF91EF91BF91AF919F918F917F916F91DC
:100420005F914F913F912F910F900FBE0F901F90B2
:1004300018951F920F920FB60F9211242F938F933E
:100440009F93EF93FF93E0914301F09144018081EA
:10045000E0914901F0914A0182FD1BC09081809199
:100460004C018F5F8F7320914D01821741F0E09115
:100470004C01F0E0ED5CFE4F958F80934C01FF91B5
:10048000EF919F918F912F910F900FBE0F901F9022
:1004900018958081F4CFE3E3F1E01382128288EEB5
:1004A00093E0A0E0B0E084839583A683B78384E0E3
:1004B00091E09183808385EC90E09587848784EC3C
:1004C00090E09787868780EC90E0918B808B81EC21
:1004D00090E0938B828B82EC90E0958B848B86EC02
:1004E00090E0978B868B118E128E138E148E08954A
:1004F000789484B5826084BD84B5816084BD85B5FF
:10050000826085BD85B5816085BD80916E0081600A
:1005100080936E00109281008091810082608093B0
:1005200081008091810081608093810080918000B2
:100530008160809380008091B10084608093B100DD
:100540008091B00081608093B00080917A008460D7
:1005500080937A0080917A00826080937A00809103
:100560007A00816080937A0080917A00806880931D
:100570007A001092C10087E00E947D0085E00E9411
:100580007D0083E00E947D00E0914301F0914401F1
:1005900082E08083E0913F01F09140011082E09180
:1005A0004101F09142018FEC808310924B01E09168
:1005B0004701F091480186E08083E0914501F09188
:1005C0004601808180618083E0914501F091460180
:1005D000808188608083E0914501F09146018081AF
:1005E00080688083E0914501F091460180818F7D94
:1005F000808343E150E062E171E083E391E00E9497
:100600009C0042E050E066E271E083E391E00E94EA
:100610009C00C0E0D0E02097F1F30E9406018823FF
:10062000D1F30E940000F7CFEE0FFF1F0590F49169
:10063000E02D0994F894FFCF000000003C019C00DD
:10064000C9008901FA00D800EC0053657269616C39
:1006500020636F6D207374617274656421000D0AEC
:02066000000098
:107E0000112484B714BE81FFF0D085E080938100F7
:107E100082E08093C00088E18093C10086E0809377
:107E2000C20080E18093C4008EE0C9D0259A86E02C
:107E300020E33CEF91E0309385002093840096BBD3
:107E4000B09BFECF1D9AA8958150A9F7CC24DD24C4
:107E500088248394B5E0AB2EA1E19A2EF3E0BF2EE7
:107E6000A2D0813461F49FD0082FAFD0023811F036
:107E7000013811F484E001C083E08DD089C08234E0
:107E800011F484E103C0853419F485E0A6D080C0E4
:107E9000853579F488D0E82EFF2485D0082F10E0AE
:107EA000102F00270E291F29000F111F8ED06801E7
:107EB0006FC0863521F484E090D080E0DECF843638
:107EC00009F040C070D06FD0082F6DD080E0C81688
:107ED00080E7D80618F4F601B7BEE895C0E0D1E017
:107EE00062D089930C17E1F7F0E0CF16F0E7DF06D8
:107EF00018F0F601B7BEE89568D007B600FCFDCFD4
:107F0000A601A0E0B1E02C9130E011968C91119780
:107F100090E0982F8827822B932B1296FA010C0160
:107F200087BEE89511244E5F5F4FF1E0A038BF0790
:107F300051F7F601A7BEE89507B600FCFDCF97BE46
:107F4000E89526C08437B1F42ED02DD0F82E2BD052
:107F50003CD0F601EF2C8F010F5F1F4F84911BD097
:107F6000EA94F801C1F70894C11CD11CFA94CF0C13
:107F7000D11C0EC0853739F428D08EE10CD085E9AC
:107F80000AD08FE07ACF813511F488E018D01DD067
:107F900080E101D065CF982F8091C00085FFFCCF94
:107FA0009093C60008958091C00087FFFCCF809118
:107FB000C00084FD01C0A8958091C6000895E0E648
:107FC000F0E098E1908380830895EDDF803219F02E
:107FD00088E0F5DFFFCF84E1DECF1F93182FE3DFCA
:107FE0001150E9F7F2DF1F91089580E0E8DFEE27F6
:047FF000FF270994CA
:027FFE00040479
:00000001FF
